{
  "contractName": "Vaccination",
  "abi": [
    {
      "anonymous": false,
      "inputs": [
        {
          "indexed": false,
          "name": "_vaccineID",
          "type": "uint256"
        },
        {
          "indexed": false,
          "name": "timestamp",
          "type": "uint256"
        },
        {
          "indexed": false,
          "name": "temperature",
          "type": "uint256"
        },
        {
          "indexed": false,
          "name": "long",
          "type": "uint256"
        },
        {
          "indexed": false,
          "name": "lat",
          "type": "uint256"
        }
      ],
      "name": "NewDetails",
      "type": "event"
    },
    {
      "constant": false,
      "inputs": [
        {
          "name": "_vaccineID",
          "type": "uint256"
        },
        {
          "name": "_temperature",
          "type": "uint256"
        },
        {
          "name": "_long",
          "type": "uint256"
        },
        {
          "name": "_lat",
          "type": "uint256"
        }
      ],
      "name": "addDetails",
      "outputs": [],
      "payable": false,
      "stateMutability": "nonpayable",
      "type": "function"
    }
  ],
  "bytecode": "0x608060405234801561001057600080fd5b506101d9806100206000396000f300608060405260043610610041576000357c0100000000000000000000000000000000000000000000000000000000900463ffffffff16806382cb5dc114610046575b600080fd5b34801561005257600080fd5b5061008f60048036038101908080359060200190929190803590602001909291908035906020019092919080359060200190929190505050610091565b005b610099610184565b6080604051908101604052804281526020018581526020018481526020018381525090506000808681526020019081526020016000208190806001815401808255809150509060018203906000526020600020906004020160009091929091909150600082015181600001556020820151816001015560408201518160020155606082015181600301555050507fba6858b87d9a88ccb9f3ff97bc3addc4659313e797ec4ab7ec3f1942cb97de968542868686604051808681526020018581526020018481526020018381526020018281526020019550505050505060405180910390a15050505050565b6080604051908101604052806000815260200160008152602001600081526020016000815250905600a165627a7a723058209fa45ba52f5d0e12f694b1ec1b08b46e03855193883e172f928833d20f2bacfc0029",
  "source": "pragma solidity ^0.4.15;\r\n\r\ncontract Vaccination {\r\n\r\n   mapping(uint => IoTData[]) vaccineData;\r\n    \r\n    struct IoTData {\r\n        uint timestamp;\r\n        uint temperature;\r\n        uint long;\r\n        uint lat;\r\n    }\r\n    \r\n    event NewDetails(uint _vaccineID, uint timestamp, uint temperature, uint long, uint lat);\r\n    \r\n    function addDetails (uint _vaccineID, uint _temperature, uint _long, uint _lat) public {\r\n        IoTData memory data = IoTData(now, _temperature, _long, _lat);\r\n        vaccineData[_vaccineID].push(data);\r\n        emit NewDetails(_vaccineID, now, _temperature, _long, _lat);\r\n    }\r\n}",
  "sourcePath": "C:\\Users\\Rahul\\Desktop\\AngelHack\\contracts\\Vaccination.sol",
  "compiler": {
    "name": "solc",
    "version": "0.4.24+commit.e67f0147.Emscripten.clang"
  },
  "schemaVersion": "2.0.0",
  "updatedAt": "2018-08-03T19:34:07.409Z"
}